{
  "contractName": "Lotry",
  "abi": [
    {
      "inputs": [],
      "stateMutability": "nonpayable",
      "type": "constructor"
    },
    {
      "inputs": [],
      "name": "manager",
      "outputs": [
        {
          "internalType": "address",
          "name": "",
          "type": "address"
        }
      ],
      "stateMutability": "view",
      "type": "function"
    },
    {
      "inputs": [
        {
          "internalType": "uint256",
          "name": "",
          "type": "uint256"
        }
      ],
      "name": "participant",
      "outputs": [
        {
          "internalType": "address payable",
          "name": "",
          "type": "address"
        }
      ],
      "stateMutability": "view",
      "type": "function"
    },
    {
      "stateMutability": "payable",
      "type": "receive"
    },
    {
      "inputs": [],
      "name": "Balance_Check",
      "outputs": [
        {
          "internalType": "uint256",
          "name": "",
          "type": "uint256"
        }
      ],
      "stateMutability": "view",
      "type": "function"
    },
    {
      "inputs": [],
      "name": "random",
      "outputs": [
        {
          "internalType": "uint256",
          "name": "",
          "type": "uint256"
        }
      ],
      "stateMutability": "view",
      "type": "function"
    },
    {
      "inputs": [],
      "name": "select_Winner",
      "outputs": [],
      "stateMutability": "nonpayable",
      "type": "function"
    }
  ],
  "bytecode": "0x608060405234801561001057600080fd5b50336000806101000a81548173ffffffffffffffffffffffffffffffffffffffff021916908373ffffffffffffffffffffffffffffffffffffffff160217905550610748806100606000396000f3fe60806040526004361061004e5760003560e01c80632ac75ab5146100d0578063481c6a75146100e75780634b07954a146101125780635ec01e4d1461014f578063ffbe3f421461017a576100cb565b366100cb57670de0b6b3a7640000341461006757600080fd5b6001339080600181540180825580915050600190039060005260206000200160009091909190916101000a81548173ffffffffffffffffffffffffffffffffffffffff021916908373ffffffffffffffffffffffffffffffffffffffff1602179055005b600080fd5b3480156100dc57600080fd5b506100e56101a5565b005b3480156100f357600080fd5b506100fc610327565b604051610109919061050d565b60405180910390f35b34801561011e57600080fd5b5061013960048036038101906101349190610563565b61034b565b60405161014691906105b1565b60405180910390f35b34801561015b57600080fd5b5061016461038a565b60405161017191906105db565b60405180910390f35b34801561018657600080fd5b5061018f6103c4565b60405161019c91906105db565b60405180910390f35b60008054906101000a900473ffffffffffffffffffffffffffffffffffffffff1673ffffffffffffffffffffffffffffffffffffffff163373ffffffffffffffffffffffffffffffffffffffff16146101fd57600080fd5b6003600180549050101561021057600080fd5b600061021a61038a565b905060006001805490508261022f9190610625565b905060006001828154811061024757610246610656565b5b9060005260206000200160009054906101000a900473ffffffffffffffffffffffffffffffffffffffff1690508073ffffffffffffffffffffffffffffffffffffffff166108fc6102966103c4565b9081150290604051600060405180830381858888f193505050501580156102c1573d6000803e3d6000fd5b50600067ffffffffffffffff8111156102dd576102dc610685565b5b60405190808252806020026020018201604052801561030b5781602001602082028036833780820191505090505b5060019080519060200190610321929190610425565b50505050565b60008054906101000a900473ffffffffffffffffffffffffffffffffffffffff1681565b6001818154811061035b57600080fd5b906000526020600020016000915054906101000a900473ffffffffffffffffffffffffffffffffffffffff1681565b600044426001805490506040516020016103a6939291906106d5565b6040516020818303038152906040528051906020012060001c905090565b60008060009054906101000a900473ffffffffffffffffffffffffffffffffffffffff1673ffffffffffffffffffffffffffffffffffffffff163373ffffffffffffffffffffffffffffffffffffffff161461041f57600080fd5b47905090565b82805482825590600052602060002090810192821561049e579160200282015b8281111561049d5782518260006101000a81548173ffffffffffffffffffffffffffffffffffffffff021916908373ffffffffffffffffffffffffffffffffffffffff16021790555091602001919060010190610445565b5b5090506104ab91906104af565b5090565b5b808211156104c85760008160009055506001016104b0565b5090565b600073ffffffffffffffffffffffffffffffffffffffff82169050919050565b60006104f7826104cc565b9050919050565b610507816104ec565b82525050565b600060208201905061052260008301846104fe565b92915050565b600080fd5b6000819050919050565b6105408161052d565b811461054b57600080fd5b50565b60008135905061055d81610537565b92915050565b60006020828403121561057957610578610528565b5b60006105878482850161054e565b91505092915050565b600061059b826104cc565b9050919050565b6105ab81610590565b82525050565b60006020820190506105c660008301846105a2565b92915050565b6105d58161052d565b82525050565b60006020820190506105f060008301846105cc565b92915050565b7f4e487b7100000000000000000000000000000000000000000000000000000000600052601260045260246000fd5b60006106308261052d565b915061063b8361052d565b92508261064b5761064a6105f6565b5b828206905092915050565b7f4e487b7100000000000000000000000000000000000000000000000000000000600052603260045260246000fd5b7f4e487b7100000000000000000000000000000000000000000000000000000000600052604160045260246000fd5b6000819050919050565b6106cf6106ca8261052d565b6106b4565b82525050565b60006106e182866106be565b6020820191506106f182856106be565b60208201915061070182846106be565b60208201915081905094935050505056fea2646970667358221220eb09235a61695f203e82a83f5991e680afad11c68966404bb261bd2f9b9c90fb64736f6c634300080f0033",
  "immutableReferences": {},
  "source": "// SPDX-License-Identifier: UNLICENSED\r\npragma solidity >=0.4.22 <0.9.0;\r\ncontract Lotry{\r\n    address public manager;\r\n    address payable[] public participant;//we use payable function as an arry to store the data of participants\r\n    \r\n    constructor(){\r\n        manager=msg.sender;\r\n    }\r\n    //receive is a one time use function for receiving the money\r\n    receive()external payable\r\n    {\r\n        require(msg.value==1 ether);\r\n        participant.push(payable(msg.sender));\r\n    }\r\n    //for balance check only by manager\r\n    function Balance_Check()public view returns(uint){\r\n        require(msg.sender==manager);\r\n        return address(this).balance;\r\n\r\n    }\r\n    function random()public view returns(uint){\r\n      return uint ( keccak256(abi.encodePacked(block.difficulty,block.timestamp,participant.length)));\r\n    }\r\n    function select_Winner()public {\r\n        require(msg.sender== manager);\r\n        require(participant.length>=3);\r\n        uint rand_Value = random();\r\n        uint players = rand_Value % participant.length;\r\n        address payable winner;\r\n        winner=participant[players];\r\n        winner.transfer (Balance_Check());\r\n        participant= new address payable[](0);  \r\n\r\n    }\r\n\r\n    }\r\n",
  "sourcePath": "E:\\project\\Ethereum\\lotery\\contracts\\lotery.sol",
  "compiler": {
    "name": "solc",
    "version": "0.8.15+commit.e14f2714.Emscripten.clang"
  },
  "schemaVersion": "3.4.8",
  "updatedAt": "2022-07-18T18:30:23.215Z",
  "devdoc": {
    "kind": "dev",
    "methods": {},
    "version": 1
  },
  "userdoc": {
    "kind": "user",
    "methods": {},
    "version": 1
  }
}